:020000040000FA
:04000000A4EF08F071
:100800000001000000180056616C6F723A20000071
:1008100003040410D8B427D069D0928012009282C9
:100820001200928412009286120092881200928A1C
:100830001200948012009482120094841200948C0E
:100840001200948E120093801200938212009384FF
:1008500012009386120093881200938A1200938CE0
:100860001200938E120001C005F002C006F006507F
:10087000000AD8A412000550020AD8B4CED7010A43
:10088000D8B4CDD7070AD8B4CCD7010AD8B4CBD7BF
:10089000030AD8B4CAD7010AD8B4C9D70C0AD8B445
:1008A000C8D7070AD8B4C7D7010AD8B4C6D71C0A14
:1008B000D8B4C5D7030AD8B4C4D7070AD8B4C3D7A5
:1008C000030AD8B4C2D7010AD8B4C1D70F0AD8B422
:1008D000C0D7010AD8B4BFD7030AD8B4BED7010A1B
:1008E000D8B4BDD7070AD8A41200BBD70350041050
:1008F000D8A4120026D092901200929212009294E4
:1009000012009296120092981200929A12009490FD
:1009100012009492120094941200949C1200949EDF
:1009200012009390120093921200939412009396E7
:10093000120093981200939A1200939C1200939EB7
:10094000120001C005F002C006F00650000AD8A44B
:1009500012000550020AD8B4CED7010AD8B4CDD7B8
:10096000070AD8B4CCD7010AD8B4CBD7030AD8B475
:10097000CAD7010AD8B4C9D70C0AD8B4C8D7070A4D
:10098000D8B4C7D7010AD8B4C6D71C0AD8B4C5D7BB
:10099000030AD8B4C4D7070AD8B4C3D7030AD8B453
:1009A000C2D7010AD8B4C1D70F0AD8B4C0D7010A38
:1009B000D8B4BFD7030AD8B4BED7010AD8B4BDD7BC
:1009C000070AD8A41200BBD703040410D8B427D058
:1009D00069D080821200808412008080120080869C
:1009E000120080881200808A1200828012008282A7
:1009F000120082841200828C1200828E120081808A
:100A00001200818212008184120081861200818886
:100A10001200818A1200818C1200818E120001C0A6
:100A200005F002C006F00650000AD8A412000550D6
:100A3000020AD8B4D2D7010AD8B4CBD7070AD8B49F
:100A4000CAD7010AD8B4CBD7030AD8B4CAD7010A87
:100A5000D8B4C9D70C0AD8B4C8D7070AD8B4C7D7EE
:100A6000010AD8B4C6D71C0AD8B4C5D7030AD8B46B
:100A7000C4D7070AD8B4C3D7030AD8B4C2D7010A67
:100A8000D8B4C1D70F0AD8B4C0D7010AD8B4BFD7D9
:100A9000030AD8B4BED7010AD8B4BDD7070AD8A470
:100AA0001200BBD703500410D8A4120026D08090A7
:100AB000120080921200809412008096120080989A
:100AC0001200809A12008290120082921200829488
:100AD0001200829C1200829E12008190120081926C
:100AE0001200819412008196120081981200819A5E
:100AF0001200819C1200819E120001C005F002C00C
:100B000006F00650000AD8A412000550020AD8B414
:100B1000CED7010AD8B4CDD7070AD8B4CCD7010AAA
:100B2000D8B4CBD7030AD8B4CAD7010AD8B4C9D726
:100B30000C0AD8B4C8D7070AD8B4C7D7010AD8B4A2
:100B4000C6D71C0AD8B4C5D7030AD8B4C4D7070A75
:100B5000D8B4C3D7030AD8B4C2D7010AD8B4C1D70E
:100B60000F0AD8B4C0D7010AD8B4BFD7030AD8B483
:100B7000BED7010AD8B4BDD7070AD8A41200BBD784
:100B8000800E0F6E250E106E000E116E000E126E8E
:100B900021EC08F0000E026E010E016E50EC06F022
:100BA000000E026E180E016E000E046E000E036E33
:100BB00008EC04F0000E026E180E016E000E046EBA
:100BC000000E036EE4EC04F0000E076E000E066EDD
:100BD000ABEC07F006C025F007C026F0070E026E4A
:100BE000080E036E8FEC08F025C009F026C00AF04D
:100BF00021EC07F0176E186A17C00FF018C010F03C
:100C00007AEC08F026BE29D02504020E2658D8A07A
:100C100024D0000E026E180E016E000E046E010E3E
:100C2000036EE4EC04F00D0E176EFC0EE82EFED7FA
:100C3000172EFCD7000E026E180E016E000E046E09
:100C4000000E036EE4EC04F0330E176EA50EE82ED2
:100C5000FED7172EFCD700F0B7D7000E026E180E85
:100C6000016E000E046E010E036EE4EC04F00B0E38
:100C7000176EB60EE82EFED7172EFCD7000E026EAA
:100C8000180E016E000E046E000E036EE4EC04F00C
:100C9000360E176E3E0EE82EFED7172EFCD794D7D1
:100CA00030D00F0EC16E12000E0EC16E12000D0E6E
:100CB000C16E12000C0EC16E12000B0EC16E12003E
:100CC0000A0EC16E1200090EC16E1200080EC16E2E
:100CD0001200070EC16E1200060EC16E1200050E44
:100CE000C16E1200040EC16E1200030EC16E12001E
:100CF000020EC16E1200010EC16E1200000EC16E16
:100D0000120001C003F002C004F00450000AD8A48D
:100D100012000350000AD8B4C4D7010AD8B4C4D70B
:100D2000030AD8B4C4D7010AD8B4C4D7070AD8B4C0
:100D3000C4D7010AD8B4C4D7030AD8B4C4D7010AA7
:100D4000D8B4C4D70F0AD8B4C4D7010AD8B4C4D70A
:100D5000030AD8B4C4D7010AD8B4C4D7070AD8B490
:100D6000C4D7010AD8B4C4D7030AD8B4C4D7010A77
:100D7000D8A41200C3D7000E0A6E08AE0AD0081E0F
:100D8000071E061E056C000E062207220822010E11
:100D90000A6E04AE0AD0041E031E021E016C000E71
:100DA000022203220422010E0A1A000E0B6E000E0C
:100DB0000C6E000E0D6E000E0E6E05500610071024
:100DC0000810D8B42AD0010E096E06D0D890053686
:100DD000063607360836092A08AEF8D7D8900B36FB
:100DE0000C360D360E360550015C06500258075081
:100DF000035808500458D8A009D00550015E065089
:100E0000025A0750035A0850045A0B80D8900832EF
:100E1000073206320532092EE1D70A50D8B408D07D
:100E20000E1E0D1E0C1E0B6C000E0C220D220E222F
:100E30000BC001F00CC002F00DC003F00EC004F0B6
:100E4000120009C00BF00AC00CF0000E0E6E0B0E63
:100E50000D6E000E246E0AAE04D0096C0A1ED8B0C6
:100E60000A2A0D06D8A00E06190E0D24D96E000E02
:100E70000E20DA6E09C001F00AC002F0000E046E06
:100E80000A0E036EE9EC07F00150300FDF6E09C067
:100E900001F00AC002F0000E046E0A0E036E69EC47
:100EA00007F001C009F002C00AF009500A10D8A4E6
:100EB000D8D70CAE0BD00D06D8A00E06190E0D24F7
:100EC000D96E000E0E20DA6E2D0EDF6E190E0D2477
:100ED0001200000E066E04AE06D0036C041ED8B0DD
:100EE000042A010E066E02AE06D0016C021ED8B0B6
:100EF000022A010E061A000E086E000E076E03503D
:100F00000410D8B41CD0010E056E04D0D89003365E
:100F10000436052A04AEFAD7D890073608360350AF
:100F2000015C04500258D8A005D00350015E045063
:100F3000025A0780D89004320332052EEDD70650AE
:100F4000D8B404D0076C081ED8B0082A07C001F036
:100F500008C002F012000BD006C001F007C002F07A
:100F600059EC08F001C00AF002C00BF02DD006C009
:100F700008F007C009F00950000AD8A425D008508D
:100F8000000AD8B4E9D7010AD8B4E6D7030AD8B41E
:100F9000E3D7060AD8B4E0D7010AD8B4DDD7030AEC
:100FA000D8B4DAD7010AD8B4D7D70F0AD8B4D4D76F
:100FB000010AD8B4D1D7030AD8B4CED7010AD8B41D
:100FC000CBD7070AD8B4C8D70AC006F00BC007F0C1
:100FD0001200000E066E02AE06D0016C021ED8B0E2
:100FE000022A010E066E04AE04D0036C041ED8B0B3
:100FF000042A03500410D8B418D0010E056E04D092
:10100000D89003360436052A04AEFAD70350015CA3
:1010100004500258D8A004D00350015E0450025A74
:10102000D89004320332052EF1D70650D8B404D03C
:10103000016C021ED8B0022A01C001F002C002F009
:101040001200949C948E0FC005F010C006F011C0E1
:1010500007F012C008F0000E016E2D0E026E310E68
:10106000036E010E046EBBEC06F001C013F002C06B
:1010700014F003C015F004C016F013C001F014C042
:1010800002F015C003F016C004F0400E056E000E0D
:10109000066E000E076E000E086EBBEC06F0010433
:1010A000AF6EAC94AC98AB8EAC9CAC8AAB9CAB886E
:1010B000120001C003F003460346C2500318C30BDD
:1010C0000318C26EF80EC016C08EC280C282C2B2B1
:1010D000FED7C4CF04F0056A0450056E046AC350FD
:1010E0000424046E000E0520056E04C001F005C046
:1010F00002F0120009D00FC0D9FF10C0DAFFDF5094
:10110000AFEC08F00F4A102A0FC0D9FF10C0DAFF69
:10111000DF50D8A4F0D70D0EAFEC08F012000AD0C3
:1011200002C0F6FF03C0F7FF0800F550AFEC08F06F
:10113000024A032A02C0F6FF03C0F7FF0800F55079
:101140000009D8B41200ECD700EE19F00F0EEE6AC9
:10115000E806FDE1000EF86E0001C0EF05F0016E3B
:0A116000ACA2FED701C0ADFF1200E3
:020000040020DA
:08000000FFFFFFFFFFFFFFFF00
:020000040030CA
:0E000000000C191EFF8381FF0FC00FE00F40A0
:00000001FF
